{
  "contractName": "NFTDemoContract",
  "abi": [
    {
      "inputs": [],
      "stateMutability": "nonpayable",
      "type": "constructor"
    },
    {
      "anonymous": false,
      "inputs": [
        {
          "indexed": true,
          "internalType": "address",
          "name": "owner",
          "type": "address"
        },
        {
          "indexed": true,
          "internalType": "address",
          "name": "approved",
          "type": "address"
        },
        {
          "indexed": true,
          "internalType": "uint256",
          "name": "tokenId",
          "type": "uint256"
        }
      ],
      "name": "Approval",
      "type": "event"
    },
    {
      "anonymous": false,
      "inputs": [
        {
          "indexed": true,
          "internalType": "address",
          "name": "owner",
          "type": "address"
        },
        {
          "indexed": true,
          "internalType": "address",
          "name": "operator",
          "type": "address"
        },
        {
          "indexed": false,
          "internalType": "bool",
          "name": "approved",
          "type": "bool"
        }
      ],
      "name": "ApprovalForAll",
      "type": "event"
    },
    {
      "anonymous": false,
      "inputs": [
        {
          "indexed": true,
          "internalType": "address",
          "name": "previousOwner",
          "type": "address"
        },
        {
          "indexed": true,
          "internalType": "address",
          "name": "newOwner",
          "type": "address"
        }
      ],
      "name": "OwnershipTransferred",
      "type": "event"
    },
    {
      "anonymous": false,
      "inputs": [
        {
          "indexed": true,
          "internalType": "address",
          "name": "from",
          "type": "address"
        },
        {
          "indexed": true,
          "internalType": "address",
          "name": "to",
          "type": "address"
        },
        {
          "indexed": true,
          "internalType": "uint256",
          "name": "tokenId",
          "type": "uint256"
        }
      ],
      "name": "Transfer",
      "type": "event"
    },
    {
      "inputs": [
        {
          "internalType": "address",
          "name": "to",
          "type": "address"
        },
        {
          "internalType": "uint256",
          "name": "tokenId",
          "type": "uint256"
        }
      ],
      "name": "approve",
      "outputs": [],
      "stateMutability": "nonpayable",
      "type": "function"
    },
    {
      "inputs": [
        {
          "internalType": "address",
          "name": "owner",
          "type": "address"
        }
      ],
      "name": "balanceOf",
      "outputs": [
        {
          "internalType": "uint256",
          "name": "",
          "type": "uint256"
        }
      ],
      "stateMutability": "view",
      "type": "function",
      "constant": true
    },
    {
      "inputs": [
        {
          "internalType": "uint256",
          "name": "tokenId",
          "type": "uint256"
        }
      ],
      "name": "getApproved",
      "outputs": [
        {
          "internalType": "address",
          "name": "",
          "type": "address"
        }
      ],
      "stateMutability": "view",
      "type": "function",
      "constant": true
    },
    {
      "inputs": [
        {
          "internalType": "address",
          "name": "owner",
          "type": "address"
        },
        {
          "internalType": "address",
          "name": "operator",
          "type": "address"
        }
      ],
      "name": "isApprovedForAll",
      "outputs": [
        {
          "internalType": "bool",
          "name": "",
          "type": "bool"
        }
      ],
      "stateMutability": "view",
      "type": "function",
      "constant": true
    },
    {
      "inputs": [],
      "name": "name",
      "outputs": [
        {
          "internalType": "string",
          "name": "",
          "type": "string"
        }
      ],
      "stateMutability": "view",
      "type": "function",
      "constant": true
    },
    {
      "inputs": [],
      "name": "owner",
      "outputs": [
        {
          "internalType": "address",
          "name": "",
          "type": "address"
        }
      ],
      "stateMutability": "view",
      "type": "function",
      "constant": true
    },
    {
      "inputs": [
        {
          "internalType": "uint256",
          "name": "tokenId",
          "type": "uint256"
        }
      ],
      "name": "ownerOf",
      "outputs": [
        {
          "internalType": "address",
          "name": "",
          "type": "address"
        }
      ],
      "stateMutability": "view",
      "type": "function",
      "constant": true
    },
    {
      "inputs": [],
      "name": "renounceOwnership",
      "outputs": [],
      "stateMutability": "nonpayable",
      "type": "function"
    },
    {
      "inputs": [
        {
          "internalType": "address",
          "name": "from",
          "type": "address"
        },
        {
          "internalType": "address",
          "name": "to",
          "type": "address"
        },
        {
          "internalType": "uint256",
          "name": "tokenId",
          "type": "uint256"
        }
      ],
      "name": "safeTransferFrom",
      "outputs": [],
      "stateMutability": "nonpayable",
      "type": "function"
    },
    {
      "inputs": [
        {
          "internalType": "address",
          "name": "from",
          "type": "address"
        },
        {
          "internalType": "address",
          "name": "to",
          "type": "address"
        },
        {
          "internalType": "uint256",
          "name": "tokenId",
          "type": "uint256"
        },
        {
          "internalType": "bytes",
          "name": "_data",
          "type": "bytes"
        }
      ],
      "name": "safeTransferFrom",
      "outputs": [],
      "stateMutability": "nonpayable",
      "type": "function"
    },
    {
      "inputs": [
        {
          "internalType": "address",
          "name": "operator",
          "type": "address"
        },
        {
          "internalType": "bool",
          "name": "approved",
          "type": "bool"
        }
      ],
      "name": "setApprovalForAll",
      "outputs": [],
      "stateMutability": "nonpayable",
      "type": "function"
    },
    {
      "inputs": [
        {
          "internalType": "bytes4",
          "name": "interfaceId",
          "type": "bytes4"
        }
      ],
      "name": "supportsInterface",
      "outputs": [
        {
          "internalType": "bool",
          "name": "",
          "type": "bool"
        }
      ],
      "stateMutability": "view",
      "type": "function",
      "constant": true
    },
    {
      "inputs": [],
      "name": "symbol",
      "outputs": [
        {
          "internalType": "string",
          "name": "",
          "type": "string"
        }
      ],
      "stateMutability": "view",
      "type": "function",
      "constant": true
    },
    {
      "inputs": [],
      "name": "tokenCounter",
      "outputs": [
        {
          "internalType": "uint256",
          "name": "",
          "type": "uint256"
        }
      ],
      "stateMutability": "view",
      "type": "function",
      "constant": true
    },
    {
      "inputs": [
        {
          "internalType": "uint256",
          "name": "tokenId",
          "type": "uint256"
        }
      ],
      "name": "tokenURI",
      "outputs": [
        {
          "internalType": "string",
          "name": "",
          "type": "string"
        }
      ],
      "stateMutability": "view",
      "type": "function",
      "constant": true
    },
    {
      "inputs": [
        {
          "internalType": "address",
          "name": "from",
          "type": "address"
        },
        {
          "internalType": "address",
          "name": "to",
          "type": "address"
        },
        {
          "internalType": "uint256",
          "name": "tokenId",
          "type": "uint256"
        }
      ],
      "name": "transferFrom",
      "outputs": [],
      "stateMutability": "nonpayable",
      "type": "function"
    },
    {
      "inputs": [
        {
          "internalType": "address",
          "name": "newOwner",
          "type": "address"
        }
      ],
      "name": "transferOwnership",
      "outputs": [],
      "stateMutability": "nonpayable",
      "type": "function"
    },
    {
      "inputs": [
        {
          "internalType": "address",
          "name": "recipient",
          "type": "address"
        },
        {
          "internalType": "string",
          "name": "tokenURI",
          "type": "string"
        }
      ],
      "name": "mint",
      "outputs": [
        {
          "internalType": "uint256",
          "name": "",
          "type": "uint256"
        }
      ],
      "stateMutability": "nonpayable",
      "type": "function"
    }
  ],
  "bytecode": "0x608060405260006008553480156200001657600080fd5b506040518060400160405280600c81526020017f4d6f6e646f20526f626f747300000000000000000000000000000000000000008152506040518060400160405280600281526020017f4d5200000000000000000000000000000000000000000000000000000000000081525081600090805190602001906200009b929190620001ab565b508060019080519060200190620000b4929190620001ab565b505050620000d7620000cb620000dd60201b60201c565b620000e560201b60201c565b620002bf565b600033905090565b6000600760009054906101000a900473ffffffffffffffffffffffffffffffffffffffff16905081600760006101000a81548173ffffffffffffffffffffffffffffffffffffffff021916908373ffffffffffffffffffffffffffffffffffffffff1602179055508173ffffffffffffffffffffffffffffffffffffffff168173ffffffffffffffffffffffffffffffffffffffff167f8be0079c531659141344cd1fd0a4f28419497f9722a3daafe3b4186f6b6457e060405160405180910390a35050565b828054620001b9906200028a565b90600052602060002090601f016020900481019282620001dd576000855562000229565b82601f10620001f857805160ff191683800117855562000229565b8280016001018555821562000229579182015b82811115620002285782518255916020019190600101906200020b565b5b5090506200023891906200023c565b5090565b5b80821115620002575760008160009055506001016200023d565b5090565b7f4e487b7100000000000000000000000000000000000000000000000000000000600052602260045260246000fd5b60006002820490506001821680620002a357607f821691505b602082108103620002b957620002b86200025b565b5b50919050565b612f9680620002cf6000396000f3fe608060405234801561001057600080fd5b50600436106101165760003560e01c80638da5cb5b116100a2578063c87b56dd11610071578063c87b56dd146102cb578063d082e381146102fb578063d0def52114610319578063e985e9c514610349578063f2fde38b1461037957610116565b80638da5cb5b1461025757806395d89b4114610275578063a22cb46514610293578063b88d4fde146102af57610116565b806323b872dd116100e957806323b872dd146101b557806342842e0e146101d15780636352211e146101ed57806370a082311461021d578063715018a61461024d57610116565b806301ffc9a71461011b57806306fdde031461014b578063081812fc14610169578063095ea7b314610199575b600080fd5b61013560048036038101906101309190611bfc565b610395565b6040516101429190611c44565b60405180910390f35b610153610477565b6040516101609190611cf8565b60405180910390f35b610183600480360381019061017e9190611d50565b610509565b6040516101909190611dbe565b60405180910390f35b6101b360048036038101906101ae9190611e05565b61058e565b005b6101cf60048036038101906101ca9190611e45565b6106a5565b005b6101eb60048036038101906101e69190611e45565b610705565b005b61020760048036038101906102029190611d50565b610725565b6040516102149190611dbe565b60405180910390f35b61023760048036038101906102329190611e98565b6107d6565b6040516102449190611ed4565b60405180910390f35b61025561088d565b005b61025f610915565b60405161026c9190611dbe565b60405180910390f35b61027d61093f565b60405161028a9190611cf8565b60405180910390f35b6102ad60048036038101906102a89190611f1b565b6109d1565b005b6102c960048036038101906102c49190612090565b6109e7565b005b6102e560048036038101906102e09190611d50565b610a49565b6040516102f29190611cf8565b60405180910390f35b610303610b9a565b6040516103109190611ed4565b60405180910390f35b610333600480360381019061032e91906121b4565b610ba0565b6040516103409190611ed4565b60405180910390f35b610363600480360381019061035e9190612210565b610bda565b6040516103709190611c44565b60405180910390f35b610393600480360381019061038e9190611e98565b610c6e565b005b60007f80ac58cd000000000000000000000000000000000000000000000000000000007bffffffffffffffffffffffffffffffffffffffffffffffffffffffff1916827bffffffffffffffffffffffffffffffffffffffffffffffffffffffff1916148061046057507f5b5e139f000000000000000000000000000000000000000000000000000000007bffffffffffffffffffffffffffffffffffffffffffffffffffffffff1916827bffffffffffffffffffffffffffffffffffffffffffffffffffffffff1916145b80610470575061046f82610d65565b5b9050919050565b6060600080546104869061227f565b80601f01602080910402602001604051908101604052809291908181526020018280546104b29061227f565b80156104ff5780601f106104d4576101008083540402835291602001916104ff565b820191906000526020600020905b8154815290600101906020018083116104e257829003601f168201915b5050505050905090565b600061051482610dcf565b610553576040517f08c379a000000000000000000000000000000000000000000000000000000000815260040161054a90612322565b60405180910390fd5b6004600083815260200190815260200160002060009054906101000a900473ffffffffffffffffffffffffffffffffffffffff169050919050565b600061059982610725565b90508073ffffffffffffffffffffffffffffffffffffffff168373ffffffffffffffffffffffffffffffffffffffff1603610609576040517f08c379a0000000000000000000000000000000000000000000000000000000008152600401610600906123b4565b60405180910390fd5b8073ffffffffffffffffffffffffffffffffffffffff16610628610e3b565b73ffffffffffffffffffffffffffffffffffffffff161480610657575061065681610651610e3b565b610bda565b5b610696576040517f08c379a000000000000000000000000000000000000000000000000000000000815260040161068d90612446565b60405180910390fd5b6106a08383610e43565b505050565b6106b66106b0610e3b565b82610efc565b6106f5576040517f08c379a00000000000000000000000000000000000000000000000000000000081526004016106ec906124d8565b60405180910390fd5b610700838383610fda565b505050565b610720838383604051806020016040528060008152506109e7565b505050565b6000806002600084815260200190815260200160002060009054906101000a900473ffffffffffffffffffffffffffffffffffffffff169050600073ffffffffffffffffffffffffffffffffffffffff168173ffffffffffffffffffffffffffffffffffffffff16036107cd576040517f08c379a00000000000000000000000000000000000000000000000000000000081526004016107c49061256a565b60405180910390fd5b80915050919050565b60008073ffffffffffffffffffffffffffffffffffffffff168273ffffffffffffffffffffffffffffffffffffffff1603610846576040517f08c379a000000000000000000000000000000000000000000000000000000000815260040161083d906125fc565b60405180910390fd5b600360008373ffffffffffffffffffffffffffffffffffffffff1673ffffffffffffffffffffffffffffffffffffffff168152602001908152602001600020549050919050565b610895610e3b565b73ffffffffffffffffffffffffffffffffffffffff166108b3610915565b73ffffffffffffffffffffffffffffffffffffffff1614610909576040517f08c379a000000000000000000000000000000000000000000000000000000000815260040161090090612668565b60405180910390fd5b6109136000611240565b565b6000600760009054906101000a900473ffffffffffffffffffffffffffffffffffffffff16905090565b60606001805461094e9061227f565b80601f016020809104026020016040519081016040528092919081815260200182805461097a9061227f565b80156109c75780601f1061099c576101008083540402835291602001916109c7565b820191906000526020600020905b8154815290600101906020018083116109aa57829003601f168201915b5050505050905090565b6109e36109dc610e3b565b8383611306565b5050565b6109f86109f2610e3b565b83610efc565b610a37576040517f08c379a0000000000000000000000000000000000000000000000000000000008152600401610a2e906124d8565b60405180910390fd5b610a4384848484611472565b50505050565b6060610a5482610dcf565b610a93576040517f08c379a0000000000000000000000000000000000000000000000000000000008152600401610a8a906126fa565b60405180910390fd5b6000600660008481526020019081526020016000208054610ab39061227f565b80601f0160208091040260200160405190810160405280929190818152602001828054610adf9061227f565b8015610b2c5780601f10610b0157610100808354040283529160200191610b2c565b820191906000526020600020905b815481529060010190602001808311610b0f57829003601f168201915b505050505090506000610b3d6114ce565b90506000815103610b52578192505050610b95565b600082511115610b87578082604051602001610b6f929190612756565b60405160208183030381529060405292505050610b95565b610b90846114e5565b925050505b919050565b60085481565b6000610bae8360085461158c565b610bba60085483611765565b6001600854610bc991906127a9565b600881905550600854905092915050565b6000600560008473ffffffffffffffffffffffffffffffffffffffff1673ffffffffffffffffffffffffffffffffffffffff16815260200190815260200160002060008373ffffffffffffffffffffffffffffffffffffffff1673ffffffffffffffffffffffffffffffffffffffff16815260200190815260200160002060009054906101000a900460ff16905092915050565b610c76610e3b565b73ffffffffffffffffffffffffffffffffffffffff16610c94610915565b73ffffffffffffffffffffffffffffffffffffffff1614610cea576040517f08c379a0000000000000000000000000000000000000000000000000000000008152600401610ce190612668565b60405180910390fd5b600073ffffffffffffffffffffffffffffffffffffffff168173ffffffffffffffffffffffffffffffffffffffff1603610d59576040517f08c379a0000000000000000000000000000000000000000000000000000000008152600401610d5090612871565b60405180910390fd5b610d6281611240565b50565b60007f01ffc9a7000000000000000000000000000000000000000000000000000000007bffffffffffffffffffffffffffffffffffffffffffffffffffffffff1916827bffffffffffffffffffffffffffffffffffffffffffffffffffffffff1916149050919050565b60008073ffffffffffffffffffffffffffffffffffffffff166002600084815260200190815260200160002060009054906101000a900473ffffffffffffffffffffffffffffffffffffffff1673ffffffffffffffffffffffffffffffffffffffff1614159050919050565b600033905090565b816004600083815260200190815260200160002060006101000a81548173ffffffffffffffffffffffffffffffffffffffff021916908373ffffffffffffffffffffffffffffffffffffffff160217905550808273ffffffffffffffffffffffffffffffffffffffff16610eb683610725565b73ffffffffffffffffffffffffffffffffffffffff167f8c5be1e5ebec7d5bd14f71427d1e84f3dd0314c0f7b2291e5b200ac8c7c3b92560405160405180910390a45050565b6000610f0782610dcf565b610f46576040517f08c379a0000000000000000000000000000000000000000000000000000000008152600401610f3d90612903565b60405180910390fd5b6000610f5183610725565b90508073ffffffffffffffffffffffffffffffffffffffff168473ffffffffffffffffffffffffffffffffffffffff161480610f935750610f928185610bda565b5b80610fd157508373ffffffffffffffffffffffffffffffffffffffff16610fb984610509565b73ffffffffffffffffffffffffffffffffffffffff16145b91505092915050565b8273ffffffffffffffffffffffffffffffffffffffff16610ffa82610725565b73ffffffffffffffffffffffffffffffffffffffff1614611050576040517f08c379a000000000000000000000000000000000000000000000000000000000815260040161104790612995565b60405180910390fd5b600073ffffffffffffffffffffffffffffffffffffffff168273ffffffffffffffffffffffffffffffffffffffff16036110bf576040517f08c379a00000000000000000000000000000000000000000000000000000000081526004016110b690612a27565b60405180910390fd5b6110ca8383836117d9565b6110d5600082610e43565b6001600360008573ffffffffffffffffffffffffffffffffffffffff1673ffffffffffffffffffffffffffffffffffffffff16815260200190815260200160002060008282546111259190612a47565b925050819055506001600360008473ffffffffffffffffffffffffffffffffffffffff1673ffffffffffffffffffffffffffffffffffffffff168152602001908152602001600020600082825461117c91906127a9565b92505081905550816002600083815260200190815260200160002060006101000a81548173ffffffffffffffffffffffffffffffffffffffff021916908373ffffffffffffffffffffffffffffffffffffffff160217905550808273ffffffffffffffffffffffffffffffffffffffff168473ffffffffffffffffffffffffffffffffffffffff167fddf252ad1be2c89b69c2b068fc378daa952ba7f163c4a11628f55a4df523b3ef60405160405180910390a461123b8383836117de565b505050565b6000600760009054906101000a900473ffffffffffffffffffffffffffffffffffffffff16905081600760006101000a81548173ffffffffffffffffffffffffffffffffffffffff021916908373ffffffffffffffffffffffffffffffffffffffff1602179055508173ffffffffffffffffffffffffffffffffffffffff168173ffffffffffffffffffffffffffffffffffffffff167f8be0079c531659141344cd1fd0a4f28419497f9722a3daafe3b4186f6b6457e060405160405180910390a35050565b8173ffffffffffffffffffffffffffffffffffffffff168373ffffffffffffffffffffffffffffffffffffffff1603611374576040517f08c379a000000000000000000000000000000000000000000000000000000000815260040161136b90612ac7565b60405180910390fd5b80600560008573ffffffffffffffffffffffffffffffffffffffff1673ffffffffffffffffffffffffffffffffffffffff16815260200190815260200160002060008473ffffffffffffffffffffffffffffffffffffffff1673ffffffffffffffffffffffffffffffffffffffff16815260200190815260200160002060006101000a81548160ff0219169083151502179055508173ffffffffffffffffffffffffffffffffffffffff168373ffffffffffffffffffffffffffffffffffffffff167f17307eab39ab6107e8899845ad3d59bd9653f200f220920489ca2b5937696c31836040516114659190611c44565b60405180910390a3505050565b61147d848484610fda565b611489848484846117e3565b6114c8576040517f08c379a00000000000000000000000000000000000000000000000000000000081526004016114bf90612b59565b60405180910390fd5b50505050565b606060405180602001604052806000815250905090565b60606114f082610dcf565b61152f576040517f08c379a000000000000000000000000000000000000000000000000000000000815260040161152690612beb565b60405180910390fd5b60006115396114ce565b905060008151116115595760405180602001604052806000815250611584565b806115638461196a565b604051602001611574929190612756565b6040516020818303038152906040525b915050919050565b600073ffffffffffffffffffffffffffffffffffffffff168273ffffffffffffffffffffffffffffffffffffffff16036115fb576040517f08c379a00000000000000000000000000000000000000000000000000000000081526004016115f290612c57565b60405180910390fd5b61160481610dcf565b15611644576040517f08c379a000000000000000000000000000000000000000000000000000000000815260040161163b90612cc3565b60405180910390fd5b611650600083836117d9565b6001600360008473ffffffffffffffffffffffffffffffffffffffff1673ffffffffffffffffffffffffffffffffffffffff16815260200190815260200160002060008282546116a091906127a9565b92505081905550816002600083815260200190815260200160002060006101000a81548173ffffffffffffffffffffffffffffffffffffffff021916908373ffffffffffffffffffffffffffffffffffffffff160217905550808273ffffffffffffffffffffffffffffffffffffffff16600073ffffffffffffffffffffffffffffffffffffffff167fddf252ad1be2c89b69c2b068fc378daa952ba7f163c4a11628f55a4df523b3ef60405160405180910390a4611761600083836117de565b5050565b61176e82610dcf565b6117ad576040517f08c379a00000000000000000000000000000000000000000000000000000000081526004016117a490612d55565b60405180910390fd5b806006600084815260200190815260200160002090805190602001906117d4929190611aed565b505050565b505050565b505050565b60006118048473ffffffffffffffffffffffffffffffffffffffff16611aca565b1561195d578373ffffffffffffffffffffffffffffffffffffffff1663150b7a0261182d610e3b565b8786866040518563ffffffff1660e01b815260040161184f9493929190612dca565b6020604051808303816000875af192505050801561188b57506040513d601f19601f820116820180604052508101906118889190612e2b565b60015b61190d573d80600081146118bb576040519150601f19603f3d011682016040523d82523d6000602084013e6118c0565b606091505b506000815103611905576040517f08c379a00000000000000000000000000000000000000000000000000000000081526004016118fc90612b59565b60405180910390fd5b805181602001fd5b63150b7a0260e01b7bffffffffffffffffffffffffffffffffffffffffffffffffffffffff1916817bffffffffffffffffffffffffffffffffffffffffffffffffffffffff191614915050611962565b600190505b949350505050565b6060600082036119b1576040518060400160405280600181526020017f30000000000000000000000000000000000000000000000000000000000000008152509050611ac5565b600082905060005b600082146119e35780806119cc90612e58565b915050600a826119dc9190612ecf565b91506119b9565b60008167ffffffffffffffff8111156119ff576119fe611f65565b5b6040519080825280601f01601f191660200182016040528015611a315781602001600182028036833780820191505090505b5090505b60008514611abe57600182611a4a9190612a47565b9150600a85611a599190612f00565b6030611a6591906127a9565b60f81b818381518110611a7b57611a7a612f31565b5b60200101907effffffffffffffffffffffffffffffffffffffffffffffffffffffffffffff1916908160001a905350600a85611ab79190612ecf565b9450611a35565b8093505050505b919050565b6000808273ffffffffffffffffffffffffffffffffffffffff163b119050919050565b828054611af99061227f565b90600052602060002090601f016020900481019282611b1b5760008555611b62565b82601f10611b3457805160ff1916838001178555611b62565b82800160010185558215611b62579182015b82811115611b61578251825591602001919060010190611b46565b5b509050611b6f9190611b73565b5090565b5b80821115611b8c576000816000905550600101611b74565b5090565b6000604051905090565b600080fd5b600080fd5b60007fffffffff0000000000000000000000000000000000000000000000000000000082169050919050565b611bd981611ba4565b8114611be457600080fd5b50565b600081359050611bf681611bd0565b92915050565b600060208284031215611c1257611c11611b9a565b5b6000611c2084828501611be7565b91505092915050565b60008115159050919050565b611c3e81611c29565b82525050565b6000602082019050611c596000830184611c35565b92915050565b600081519050919050565b600082825260208201905092915050565b60005b83811015611c99578082015181840152602081019050611c7e565b83811115611ca8576000848401525b50505050565b6000601f19601f8301169050919050565b6000611cca82611c5f565b611cd48185611c6a565b9350611ce4818560208601611c7b565b611ced81611cae565b840191505092915050565b60006020820190508181036000830152611d128184611cbf565b905092915050565b6000819050919050565b611d2d81611d1a565b8114611d3857600080fd5b50565b600081359050611d4a81611d24565b92915050565b600060208284031215611d6657611d65611b9a565b5b6000611d7484828501611d3b565b91505092915050565b600073ffffffffffffffffffffffffffffffffffffffff82169050919050565b6000611da882611d7d565b9050919050565b611db881611d9d565b82525050565b6000602082019050611dd36000830184611daf565b92915050565b611de281611d9d565b8114611ded57600080fd5b50565b600081359050611dff81611dd9565b92915050565b60008060408385031215611e1c57611e1b611b9a565b5b6000611e2a85828601611df0565b9250506020611e3b85828601611d3b565b9150509250929050565b600080600060608486031215611e5e57611e5d611b9a565b5b6000611e6c86828701611df0565b9350506020611e7d86828701611df0565b9250506040611e8e86828701611d3b565b9150509250925092565b600060208284031215611eae57611ead611b9a565b5b6000611ebc84828501611df0565b91505092915050565b611ece81611d1a565b82525050565b6000602082019050611ee96000830184611ec5565b92915050565b611ef881611c29565b8114611f0357600080fd5b50565b600081359050611f1581611eef565b92915050565b60008060408385031215611f3257611f31611b9a565b5b6000611f4085828601611df0565b9250506020611f5185828601611f06565b9150509250929050565b600080fd5b600080fd5b7f4e487b7100000000000000000000000000000000000000000000000000000000600052604160045260246000fd5b611f9d82611cae565b810181811067ffffffffffffffff82111715611fbc57611fbb611f65565b5b80604052505050565b6000611fcf611b90565b9050611fdb8282611f94565b919050565b600067ffffffffffffffff821115611ffb57611ffa611f65565b5b61200482611cae565b9050602081019050919050565b82818337600083830152505050565b600061203361202e84611fe0565b611fc5565b90508281526020810184848401111561204f5761204e611f60565b5b61205a848285612011565b509392505050565b600082601f83011261207757612076611f5b565b5b8135612087848260208601612020565b91505092915050565b600080600080608085870312156120aa576120a9611b9a565b5b60006120b887828801611df0565b94505060206120c987828801611df0565b93505060406120da87828801611d3b565b925050606085013567ffffffffffffffff8111156120fb576120fa611b9f565b5b61210787828801612062565b91505092959194509250565b600067ffffffffffffffff82111561212e5761212d611f65565b5b61213782611cae565b9050602081019050919050565b600061215761215284612113565b611fc5565b90508281526020810184848401111561217357612172611f60565b5b61217e848285612011565b509392505050565b600082601f83011261219b5761219a611f5b565b5b81356121ab848260208601612144565b91505092915050565b600080604083850312156121cb576121ca611b9a565b5b60006121d985828601611df0565b925050602083013567ffffffffffffffff8111156121fa576121f9611b9f565b5b61220685828601612186565b9150509250929050565b6000806040838503121561222757612226611b9a565b5b600061223585828601611df0565b925050602061224685828601611df0565b9150509250929050565b7f4e487b7100000000000000000000000000000000000000000000000000000000600052602260045260246000fd5b6000600282049050600182168061229757607f821691505b6020821081036122aa576122a9612250565b5b50919050565b7f4552433732313a20617070726f76656420717565727920666f72206e6f6e657860008201527f697374656e7420746f6b656e0000000000000000000000000000000000000000602082015250565b600061230c602c83611c6a565b9150612317826122b0565b604082019050919050565b6000602082019050818103600083015261233b816122ff565b9050919050565b7f4552433732313a20617070726f76616c20746f2063757272656e74206f776e6560008201527f7200000000000000000000000000000000000000000000000000000000000000602082015250565b600061239e602183611c6a565b91506123a982612342565b604082019050919050565b600060208201905081810360008301526123cd81612391565b9050919050565b7f4552433732313a20617070726f76652063616c6c6572206973206e6f74206f7760008201527f6e6572206e6f7220617070726f76656420666f7220616c6c0000000000000000602082015250565b6000612430603883611c6a565b915061243b826123d4565b604082019050919050565b6000602082019050818103600083015261245f81612423565b9050919050565b7f4552433732313a207472616e736665722063616c6c6572206973206e6f74206f60008201527f776e6572206e6f7220617070726f766564000000000000000000000000000000602082015250565b60006124c2603183611c6a565b91506124cd82612466565b604082019050919050565b600060208201905081810360008301526124f1816124b5565b9050919050565b7f4552433732313a206f776e657220717565727920666f72206e6f6e657869737460008201527f656e7420746f6b656e0000000000000000000000000000000000000000000000602082015250565b6000612554602983611c6a565b915061255f826124f8565b604082019050919050565b6000602082019050818103600083015261258381612547565b9050919050565b7f4552433732313a2062616c616e636520717565727920666f7220746865207a6560008201527f726f206164647265737300000000000000000000000000000000000000000000602082015250565b60006125e6602a83611c6a565b91506125f18261258a565b604082019050919050565b60006020820190508181036000830152612615816125d9565b9050919050565b7f4f776e61626c653a2063616c6c6572206973206e6f7420746865206f776e6572600082015250565b6000612652602083611c6a565b915061265d8261261c565b602082019050919050565b6000602082019050818103600083015261268181612645565b9050919050565b7f45524337323155524953746f726167653a2055524920717565727920666f722060008201527f6e6f6e6578697374656e7420746f6b656e000000000000000000000000000000602082015250565b60006126e4603183611c6a565b91506126ef82612688565b604082019050919050565b60006020820190508181036000830152612713816126d7565b9050919050565b600081905092915050565b600061273082611c5f565b61273a818561271a565b935061274a818560208601611c7b565b80840191505092915050565b60006127628285612725565b915061276e8284612725565b91508190509392505050565b7f4e487b7100000000000000000000000000000000000000000000000000000000600052601160045260246000fd5b60006127b482611d1a565b91506127bf83611d1a565b9250827fffffffffffffffffffffffffffffffffffffffffffffffffffffffffffffffff038211156127f4576127f361277a565b5b828201905092915050565b7f4f776e61626c653a206e6577206f776e657220697320746865207a65726f206160008201527f6464726573730000000000000000000000000000000000000000000000000000602082015250565b600061285b602683611c6a565b9150612866826127ff565b604082019050919050565b6000602082019050818103600083015261288a8161284e565b9050919050565b7f4552433732313a206f70657261746f7220717565727920666f72206e6f6e657860008201527f697374656e7420746f6b656e0000000000000000000000000000000000000000602082015250565b60006128ed602c83611c6a565b91506128f882612891565b604082019050919050565b6000602082019050818103600083015261291c816128e0565b9050919050565b7f4552433732313a207472616e736665722066726f6d20696e636f72726563742060008201527f6f776e6572000000000000000000000000000000000000000000000000000000602082015250565b600061297f602583611c6a565b915061298a82612923565b604082019050919050565b600060208201905081810360008301526129ae81612972565b9050919050565b7f4552433732313a207472616e7366657220746f20746865207a65726f2061646460008201527f7265737300000000000000000000000000000000000000000000000000000000602082015250565b6000612a11602483611c6a565b9150612a1c826129b5565b604082019050919050565b60006020820190508181036000830152612a4081612a04565b9050919050565b6000612a5282611d1a565b9150612a5d83611d1a565b925082821015612a7057612a6f61277a565b5b828203905092915050565b7f4552433732313a20617070726f766520746f2063616c6c657200000000000000600082015250565b6000612ab1601983611c6a565b9150612abc82612a7b565b602082019050919050565b60006020820190508181036000830152612ae081612aa4565b9050919050565b7f4552433732313a207472616e7366657220746f206e6f6e20455243373231526560008201527f63656976657220696d706c656d656e7465720000000000000000000000000000602082015250565b6000612b43603283611c6a565b9150612b4e82612ae7565b604082019050919050565b60006020820190508181036000830152612b7281612b36565b9050919050565b7f4552433732314d657461646174613a2055524920717565727920666f72206e6f60008201527f6e6578697374656e7420746f6b656e0000000000000000000000000000000000602082015250565b6000612bd5602f83611c6a565b9150612be082612b79565b604082019050919050565b60006020820190508181036000830152612c0481612bc8565b9050919050565b7f4552433732313a206d696e7420746f20746865207a65726f2061646472657373600082015250565b6000612c41602083611c6a565b9150612c4c82612c0b565b602082019050919050565b60006020820190508181036000830152612c7081612c34565b9050919050565b7f4552433732313a20746f6b656e20616c7265616479206d696e74656400000000600082015250565b6000612cad601c83611c6a565b9150612cb882612c77565b602082019050919050565b60006020820190508181036000830152612cdc81612ca0565b9050919050565b7f45524337323155524953746f726167653a2055524920736574206f66206e6f6e60008201527f6578697374656e7420746f6b656e000000000000000000000000000000000000602082015250565b6000612d3f602e83611c6a565b9150612d4a82612ce3565b604082019050919050565b60006020820190508181036000830152612d6e81612d32565b9050919050565b600081519050919050565b600082825260208201905092915050565b6000612d9c82612d75565b612da68185612d80565b9350612db6818560208601611c7b565b612dbf81611cae565b840191505092915050565b6000608082019050612ddf6000830187611daf565b612dec6020830186611daf565b612df96040830185611ec5565b8181036060830152612e0b8184612d91565b905095945050505050565b600081519050612e2581611bd0565b92915050565b600060208284031215612e4157612e40611b9a565b5b6000612e4f84828501612e16565b91505092915050565b6000612e6382611d1a565b91507fffffffffffffffffffffffffffffffffffffffffffffffffffffffffffffffff8203612e9557612e9461277a565b5b600182019050919050565b7f4e487b7100000000000000000000000000000000000000000000000000000000600052601260045260246000fd5b6000612eda82611d1a565b9150612ee583611d1a565b925082612ef557612ef4612ea0565b5b828204905092915050565b6000612f0b82611d1a565b9150612f1683611d1a565b925082612f2657612f25612ea0565b5b828206905092915050565b7f4e487b7100000000000000000000000000000000000000000000000000000000600052603260045260246000fdfea264697066735822122041dd081b0ac230b24de448246ed84b8ee905520946d9f0d662cf1c80f2d663ca64736f6c634300080d0033",
  "immutableReferences": {},
  "source": "// // SPDX-License-Identifier: MIT\npragma solidity ^0.8.2;\n\nimport \"@openzeppelin/contracts/access/Ownable.sol\";\nimport \"@openzeppelin/contracts/token/ERC721/extensions/ERC721URIStorage.sol\";\n\n// To read more about NFTs, checkout the ERC721 standard:\n// https://eips.ethereum.org/EIPS/eip-721\n\ncontract NFTDemoContract is ERC721URIStorage, Ownable {\n\t\tuint256 public tokenCounter = 0;\n\n\t\t// You can pass in your own NFT name and symbol (like a stock ticker) here!\n    constructor() ERC721(\"Mondo Robots\", \"MR\") {\n\t\t\t// Put any initialization code inside of the constructor\n    }\n\n\t\t// minting is essentially creating the NFT.\n\t\t// you pass in who will own it and the link to the token's URI - which is usually a link to an image hosted on IPFS.\n    function mint(address recipient, string memory tokenURI) public returns (uint256) {\n\t\t\t\t// _mint is a built in function that actually puts your NFT onto the blockchain\n        _mint(recipient, tokenCounter);\n\n\t\t\t\t// this will set the tokenURI of the NFT to the tokenURI that you pass in through this function.\n        _setTokenURI(tokenCounter, tokenURI);\n\n\t\t\t\t// every time you mint, increment the amount of tokens you've created by 1.\n        tokenCounter = tokenCounter + 1;\n\t\t\t\t// we return the current token count, which is being used as the ID of the NFT.\n        return tokenCounter;\n    }\n}\n",
  "sourcePath": "/Users/NickOelsner/work/consensys.sample-project.template/contracts/NFTContract.sol",
  "compiler": {
    "name": "solc",
    "version": "0.8.13+commit.abaa5c0e.Emscripten.clang"
  },
  "schemaVersion": "3.4.7",
  "updatedAt": "2022-05-03T18:15:20.251Z",
  "networkType": "ethereum",
  "devdoc": {
    "kind": "dev",
    "methods": {
      "approve(address,uint256)": {
        "details": "See {IERC721-approve}."
      },
      "balanceOf(address)": {
        "details": "See {IERC721-balanceOf}."
      },
      "getApproved(uint256)": {
        "details": "See {IERC721-getApproved}."
      },
      "isApprovedForAll(address,address)": {
        "details": "See {IERC721-isApprovedForAll}."
      },
      "name()": {
        "details": "See {IERC721Metadata-name}."
      },
      "owner()": {
        "details": "Returns the address of the current owner."
      },
      "ownerOf(uint256)": {
        "details": "See {IERC721-ownerOf}."
      },
      "renounceOwnership()": {
        "details": "Leaves the contract without owner. It will not be possible to call `onlyOwner` functions anymore. Can only be called by the current owner. NOTE: Renouncing ownership will leave the contract without an owner, thereby removing any functionality that is only available to the owner."
      },
      "safeTransferFrom(address,address,uint256)": {
        "details": "See {IERC721-safeTransferFrom}."
      },
      "safeTransferFrom(address,address,uint256,bytes)": {
        "details": "See {IERC721-safeTransferFrom}."
      },
      "setApprovalForAll(address,bool)": {
        "details": "See {IERC721-setApprovalForAll}."
      },
      "supportsInterface(bytes4)": {
        "details": "See {IERC165-supportsInterface}."
      },
      "symbol()": {
        "details": "See {IERC721Metadata-symbol}."
      },
      "tokenURI(uint256)": {
        "details": "See {IERC721Metadata-tokenURI}."
      },
      "transferFrom(address,address,uint256)": {
        "details": "See {IERC721-transferFrom}."
      },
      "transferOwnership(address)": {
        "details": "Transfers ownership of the contract to a new account (`newOwner`). Can only be called by the current owner."
      }
    },
    "version": 1
  },
  "userdoc": {
    "kind": "user",
    "methods": {},
    "version": 1
  }
}